{
    "_format": "hh-sol-artifact-1",
    "contractName": "TokenTransferor",
    "sourceName": "contracts/CCIPTokenSender.sol",
    "abi": [
        {
            "inputs": [
                {
                    "internalType": "address",
                    "name": "_router",
                    "type": "address"
                },
                {
                    "internalType": "address",
                    "name": "_link",
                    "type": "address"
                }
            ],
            "stateMutability": "nonpayable",
            "type": "constructor"
        },
        {
            "inputs": [
                {
                    "internalType": "uint64",
                    "name": "destinationChainSelector",
                    "type": "uint64"
                }
            ],
            "name": "DestinationChainNotAllowlisted",
            "type": "error"
        },
        {
            "inputs": [
                {
                    "internalType": "address",
                    "name": "owner",
                    "type": "address"
                },
                {
                    "internalType": "address",
                    "name": "target",
                    "type": "address"
                },
                {
                    "internalType": "uint256",
                    "name": "value",
                    "type": "uint256"
                }
            ],
            "name": "FailedToWithdrawEth",
            "type": "error"
        },
        {
            "inputs": [],
            "name": "InvalidReceiverAddress",
            "type": "error"
        },
        {
            "inputs": [
                {
                    "internalType": "uint256",
                    "name": "currentBalance",
                    "type": "uint256"
                },
                {
                    "internalType": "uint256",
                    "name": "calculatedFees",
                    "type": "uint256"
                }
            ],
            "name": "NotEnoughBalance",
            "type": "error"
        },
        {
            "inputs": [],
            "name": "NothingToWithdraw",
            "type": "error"
        },
        {
            "anonymous": false,
            "inputs": [
                {
                    "indexed": true,
                    "internalType": "address",
                    "name": "from",
                    "type": "address"
                },
                {
                    "indexed": true,
                    "internalType": "address",
                    "name": "to",
                    "type": "address"
                }
            ],
            "name": "OwnershipTransferRequested",
            "type": "event"
        },
        {
            "anonymous": false,
            "inputs": [
                {
                    "indexed": true,
                    "internalType": "address",
                    "name": "from",
                    "type": "address"
                },
                {
                    "indexed": true,
                    "internalType": "address",
                    "name": "to",
                    "type": "address"
                }
            ],
            "name": "OwnershipTransferred",
            "type": "event"
        },
        {
            "anonymous": false,
            "inputs": [
                {
                    "indexed": true,
                    "internalType": "bytes32",
                    "name": "messageId",
                    "type": "bytes32"
                },
                {
                    "indexed": true,
                    "internalType": "uint64",
                    "name": "destinationChainSelector",
                    "type": "uint64"
                },
                {
                    "indexed": false,
                    "internalType": "address",
                    "name": "receiver",
                    "type": "address"
                },
                {
                    "indexed": false,
                    "internalType": "address",
                    "name": "token",
                    "type": "address"
                },
                {
                    "indexed": false,
                    "internalType": "uint256",
                    "name": "tokenAmount",
                    "type": "uint256"
                },
                {
                    "indexed": false,
                    "internalType": "address",
                    "name": "feeToken",
                    "type": "address"
                },
                {
                    "indexed": false,
                    "internalType": "uint256",
                    "name": "fees",
                    "type": "uint256"
                }
            ],
            "name": "TokensTransferred",
            "type": "event"
        },
        {
            "inputs": [],
            "name": "acceptOwnership",
            "outputs": [],
            "stateMutability": "nonpayable",
            "type": "function"
        },
        {
            "inputs": [
                {
                    "internalType": "uint64",
                    "name": "_destinationChainSelector",
                    "type": "uint64"
                },
                {
                    "internalType": "bool",
                    "name": "allowed",
                    "type": "bool"
                }
            ],
            "name": "allowlistDestinationChain",
            "outputs": [],
            "stateMutability": "nonpayable",
            "type": "function"
        },
        {
            "inputs": [
                {
                    "internalType": "uint64",
                    "name": "",
                    "type": "uint64"
                }
            ],
            "name": "allowlistedChains",
            "outputs": [
                {
                    "internalType": "bool",
                    "name": "",
                    "type": "bool"
                }
            ],
            "stateMutability": "view",
            "type": "function"
        },
        {
            "inputs": [],
            "name": "owner",
            "outputs": [
                {
                    "internalType": "address",
                    "name": "",
                    "type": "address"
                }
            ],
            "stateMutability": "view",
            "type": "function"
        },
        {
            "inputs": [
                {
                    "internalType": "address",
                    "name": "to",
                    "type": "address"
                }
            ],
            "name": "transferOwnership",
            "outputs": [],
            "stateMutability": "nonpayable",
            "type": "function"
        },
        {
            "inputs": [
                {
                    "internalType": "uint64",
                    "name": "_destinationChainSelector",
                    "type": "uint64"
                },
                {
                    "internalType": "address",
                    "name": "_receiver",
                    "type": "address"
                },
                {
                    "internalType": "address",
                    "name": "_token",
                    "type": "address"
                },
                {
                    "internalType": "uint256",
                    "name": "_amount",
                    "type": "uint256"
                }
            ],
            "name": "transferTokensPayLINK",
            "outputs": [
                {
                    "internalType": "bytes32",
                    "name": "messageId",
                    "type": "bytes32"
                }
            ],
            "stateMutability": "nonpayable",
            "type": "function"
        },
        {
            "inputs": [
                {
                    "internalType": "uint64",
                    "name": "_destinationChainSelector",
                    "type": "uint64"
                },
                {
                    "internalType": "address",
                    "name": "_receiver",
                    "type": "address"
                },
                {
                    "internalType": "address",
                    "name": "_token",
                    "type": "address"
                },
                {
                    "internalType": "uint256",
                    "name": "_amount",
                    "type": "uint256"
                }
            ],
            "name": "transferTokensPayNative",
            "outputs": [
                {
                    "internalType": "bytes32",
                    "name": "messageId",
                    "type": "bytes32"
                }
            ],
            "stateMutability": "nonpayable",
            "type": "function"
        },
        {
            "inputs": [
                {
                    "internalType": "address",
                    "name": "_beneficiary",
                    "type": "address"
                }
            ],
            "name": "withdraw",
            "outputs": [],
            "stateMutability": "nonpayable",
            "type": "function"
        },
        {
            "inputs": [
                {
                    "internalType": "address",
                    "name": "_beneficiary",
                    "type": "address"
                },
                {
                    "internalType": "address",
                    "name": "_token",
                    "type": "address"
                }
            ],
            "name": "withdrawToken",
            "outputs": [],
            "stateMutability": "nonpayable",
            "type": "function"
        },
        {
            "stateMutability": "payable",
            "type": "receive"
        }
    ],
    "bytecode": "0x60806040523480156200001157600080fd5b506040516200156e3803806200156e8339810160408190526200003491620001bf565b33806000816200008b5760405162461bcd60e51b815260206004820152601860248201527f43616e6e6f7420736574206f776e657220746f207a65726f000000000000000060448201526064015b60405180910390fd5b600080546001600160a01b0319166001600160a01b0384811691909117909155811615620000be57620000be81620000f7565b5050600380546001600160a01b039485166001600160a01b031991821617909155600480549390941692169190911790915550620001f7565b336001600160a01b03821603620001515760405162461bcd60e51b815260206004820152601760248201527f43616e6e6f74207472616e7366657220746f2073656c66000000000000000000604482015260640162000082565b600180546001600160a01b0319166001600160a01b0383811691821790925560008054604051929316917fed8889f560326eb138920d842192f0eb3dd22b4f139c87a2c57538e05bae12789190a350565b80516001600160a01b0381168114620001ba57600080fd5b919050565b60008060408385031215620001d357600080fd5b620001de83620001a2565b9150620001ee60208401620001a2565b90509250929050565b61136780620002076000396000f3fe60806040526004361061009a5760003560e01c806379ba50971161006957806395e1402c1161004e57806395e1402c1461019857806396d3b83d146101b8578063f2fde38b146101d857600080fd5b806379ba50971461015b5780638da5cb5b1461017057600080fd5b80630bb106eb146100a65780633aeac4e1146100eb57806351419b4b1461010d57806351cff8d91461013b57600080fd5b366100a157005b600080fd5b3480156100b257600080fd5b506100d66100c136600461105c565b60026020526000908152604090205460ff1681565b60405190151581526020015b60405180910390f35b3480156100f757600080fd5b5061010b610106366004611095565b6101f8565b005b34801561011957600080fd5b5061012d6101283660046110c8565b6102a7565b6040519081526020016100e2565b34801561014757600080fd5b5061010b610156366004611113565b610540565b34801561016757600080fd5b5061010b610610565b34801561017c57600080fd5b506000546040516001600160a01b0390911681526020016100e2565b3480156101a457600080fd5b5061012d6101b33660046110c8565b6106ce565b3480156101c457600080fd5b5061010b6101d336600461113c565b610abd565b3480156101e457600080fd5b5061010b6101f3366004611113565b610af1565b610200610b05565b6040516370a0823160e01b81523060048201526000906001600160a01b038316906370a0823190602401602060405180830381865afa158015610247573d6000803e3d6000fd5b505050506040513d601f19601f8201168201806040525081019061026b9190611173565b90508060000361028e57604051630686827b60e51b815260040160405180910390fd5b6102a26001600160a01b0383168483610b61565b505050565b60006102b1610b05565b67ffffffffffffffff8516600090815260026020526040902054859060ff166102fe57604051630a503cdb60e01b815267ffffffffffffffff821660048201526024015b60405180910390fd5b846001600160a01b0381166103265760405163502ffa3f60e11b815260040160405180910390fd5b60006103358787876000610be1565b6003546040516320487ded60e01b81529192506000916001600160a01b03909116906320487ded9061036d908c9086906004016111dc565b602060405180830381865afa15801561038a573d6000803e3d6000fd5b505050506040513d601f19601f820116820180604052508101906103ae9190611173565b9050478111156103da57604051634787a10360e11b8152476004820152602481018290526044016102f5565b60035460405163095ea7b360e01b81526001600160a01b039182166004820152602481018890529088169063095ea7b3906044016020604051808303816000875af115801561042d573d6000803e3d6000fd5b505050506040513d601f19601f8201168201806040525081019061045191906112b6565b506003546040516396f4e9f960e01b81526001600160a01b03909116906396f4e9f9908390610486908d9087906004016111dc565b60206040518083038185885af11580156104a4573d6000803e3d6000fd5b50505050506040513d601f19601f820116820180604052508101906104c99190611173565b604080516001600160a01b03808c1682528a166020820152908101889052600060608201526080810183905290955067ffffffffffffffff8a169086907fc15fb748c32ba4eb29c1c311e78533f93b4425eab49ea87c6fe4279ecadca0439060a0015b60405180910390a350505050949350505050565b610548610b05565b47600081900361056b57604051630686827b60e51b815260040160405180910390fd5b6000826001600160a01b03168260405160006040518083038185875af1925050503d80600081146105b8576040519150601f19603f3d011682016040523d82523d6000602084013e6105bd565b606091505b50509050806102a2576040517f9d11f5630000000000000000000000000000000000000000000000000000000081523360048201526001600160a01b0384166024820152604481018390526064016102f5565b6001546001600160a01b0316331461066a5760405162461bcd60e51b815260206004820152601660248201527f4d7573742062652070726f706f736564206f776e65720000000000000000000060448201526064016102f5565b600080543373ffffffffffffffffffffffffffffffffffffffff19808316821784556001805490911690556040516001600160a01b0390921692909183917f8be0079c531659141344cd1fd0a4f28419497f9722a3daafe3b4186f6b6457e091a350565b60006106d8610b05565b67ffffffffffffffff8516600090815260026020526040902054859060ff1661072057604051630a503cdb60e01b815267ffffffffffffffff821660048201526024016102f5565b846001600160a01b0381166107485760405163502ffa3f60e11b815260040160405180910390fd5b600454600090610766908890889088906001600160a01b0316610be1565b6003546040516320487ded60e01b81529192506000916001600160a01b03909116906320487ded9061079e908c9086906004016111dc565b602060405180830381865afa1580156107bb573d6000803e3d6000fd5b505050506040513d601f19601f820116820180604052508101906107df9190611173565b600480546040516370a0823160e01b815230928101929092529192506001600160a01b03909116906370a0823190602401602060405180830381865afa15801561082d573d6000803e3d6000fd5b505050506040513d601f19601f820116820180604052508101906108519190611173565b8111156108e957600480546040516370a0823160e01b815230928101929092526001600160a01b0316906370a0823190602401602060405180830381865afa1580156108a1573d6000803e3d6000fd5b505050506040513d601f19601f820116820180604052508101906108c59190611173565b604051634787a10360e11b81526004810191909152602481018290526044016102f5565b6004805460035460405163095ea7b360e01b81526001600160a01b039182169381019390935260248301849052169063095ea7b3906044016020604051808303816000875af1158015610940573d6000803e3d6000fd5b505050506040513d601f19601f8201168201806040525081019061096491906112b6565b5060035460405163095ea7b360e01b81526001600160a01b039182166004820152602481018890529088169063095ea7b3906044016020604051808303816000875af11580156109b8573d6000803e3d6000fd5b505050506040513d601f19601f820116820180604052508101906109dc91906112b6565b506003546040516396f4e9f960e01b81526001600160a01b03909116906396f4e9f990610a0f908c9086906004016111dc565b6020604051808303816000875af1158015610a2e573d6000803e3d6000fd5b505050506040513d601f19601f82011682018060405250810190610a529190611173565b600454604080516001600160a01b03808d168252808c1660208301529181018a9052911660608201526080810183905290955067ffffffffffffffff8a169086907fc15fb748c32ba4eb29c1c311e78533f93b4425eab49ea87c6fe4279ecadca0439060a00161052c565b610ac5610b05565b67ffffffffffffffff919091166000908152600260205260409020805460ff1916911515919091179055565b610af9610b05565b610b0281610d81565b50565b6000546001600160a01b03163314610b5f5760405162461bcd60e51b815260206004820152601660248201527f4f6e6c792063616c6c61626c65206279206f776e65720000000000000000000060448201526064016102f5565b565b604080516001600160a01b038416602482015260448082018490528251808303909101815260649091019091526020810180517bffffffffffffffffffffffffffffffffffffffffffffffffffffffff167fa9059cbb000000000000000000000000000000000000000000000000000000001790526102a2908490610e37565b610c1c6040518060a0016040528060608152602001606081526020016060815260200160006001600160a01b03168152602001606081525090565b604080516001808252818301909252600091816020015b6040805180820190915260008082526020820152815260200190600190039081610c335790505090506040518060400160405280866001600160a01b031681526020018581525081600081518110610c8d57610c8d6112d3565b60209081029190910101526040805160a081019091526001600160a01b03871660c08201528060e081016040516020818303038152906040528152602001604051806020016040528060008152508152602001828152602001846001600160a01b03168152602001610d736040518060200160405280600081525060408051915160248084019190915281518084039091018152604490920190526020810180517bffffffffffffffffffffffffffffffffffffffffffffffffffffffff167f97a657c90000000000000000000000000000000000000000000000000000000017905290565b90529150505b949350505050565b336001600160a01b03821603610dd95760405162461bcd60e51b815260206004820152601760248201527f43616e6e6f74207472616e7366657220746f2073656c6600000000000000000060448201526064016102f5565b6001805473ffffffffffffffffffffffffffffffffffffffff19166001600160a01b0383811691821790925560008054604051929316917fed8889f560326eb138920d842192f0eb3dd22b4f139c87a2c57538e05bae12789190a350565b6000610e8c826040518060400160405280602081526020017f5361666545524332303a206c6f772d6c6576656c2063616c6c206661696c6564815250856001600160a01b0316610f1c9092919063ffffffff16565b8051909150156102a25780806020019051810190610eaa91906112b6565b6102a25760405162461bcd60e51b815260206004820152602a60248201527f5361666545524332303a204552433230206f7065726174696f6e20646964206e60448201527f6f7420737563636565640000000000000000000000000000000000000000000060648201526084016102f5565b6060610d79848460008585600080866001600160a01b03168587604051610f439190611302565b60006040518083038185875af1925050503d8060008114610f80576040519150601f19603f3d011682016040523d82523d6000602084013e610f85565b606091505b5091509150610f9687838387610fa1565b979650505050505050565b60608315611010578251600003611009576001600160a01b0385163b6110095760405162461bcd60e51b815260206004820152601d60248201527f416464726573733a2063616c6c20746f206e6f6e2d636f6e747261637400000060448201526064016102f5565b5081610d79565b610d7983838151156110255781518083602001fd5b8060405162461bcd60e51b81526004016102f5919061131e565b803567ffffffffffffffff8116811461105757600080fd5b919050565b60006020828403121561106e57600080fd5b6110778261103f565b9392505050565b80356001600160a01b038116811461105757600080fd5b600080604083850312156110a857600080fd5b6110b18361107e565b91506110bf6020840161107e565b90509250929050565b600080600080608085870312156110de57600080fd5b6110e78561103f565b93506110f56020860161107e565b92506111036040860161107e565b9396929550929360600135925050565b60006020828403121561112557600080fd5b6110778261107e565b8015158114610b0257600080fd5b6000806040838503121561114f57600080fd5b6111588361103f565b915060208301356111688161112e565b809150509250929050565b60006020828403121561118557600080fd5b5051919050565b60005b838110156111a757818101518382015260200161118f565b50506000910152565b600081518084526111c881602086016020860161118c565b601f01601f19169290920160200192915050565b6000604067ffffffffffffffff8516835260208181850152845160a08386015261120960e08601826111b0565b905081860151603f198087840301606088015261122683836111b0565b88860151888203830160808a01528051808352908601945060009350908501905b8084101561127957845180516001600160a01b0316835286015186830152938501936001939093019290860190611247565b5060608901516001600160a01b031660a08901526080890151888203830160c08a015295506112a881876111b0565b9a9950505050505050505050565b6000602082840312156112c857600080fd5b81516110778161112e565b7f4e487b7100000000000000000000000000000000000000000000000000000000600052603260045260246000fd5b6000825161131481846020870161118c565b9190910192915050565b60208152600061107760208301846111b056fea26469706673582212203d27fc7b8d89bff222f4efc7bbf349e34f4a9b42b1402f8285e636dbb0bcefac64736f6c63430008110033",
    "linkReferences": {},
    "deployedLinkReferences": {}
}