{"abi":[{"type":"constructor","inputs":[{"name":"anEntryPoint","type":"address","internalType":"contract IEntryPoint"},{"name":"anVerifier","type":"address","internalType":"contract Verifier"}],"stateMutability":"nonpayable"},{"type":"receive","stateMutability":"payable"},{"type":"function","name":"UPGRADE_INTERFACE_VERSION","inputs":[],"outputs":[{"name":"","type":"string","internalType":"string"}],"stateMutability":"view"},{"type":"function","name":"addDeposit","inputs":[],"outputs":[],"stateMutability":"payable"},{"type":"function","name":"appleEmailKeyHash","inputs":[],"outputs":[{"name":"","type":"bytes32","internalType":"bytes32"}],"stateMutability":"view"},{"type":"function","name":"bytesInPackedBytes","inputs":[],"outputs":[{"name":"","type":"uint16","internalType":"uint16"}],"stateMutability":"view"},{"type":"function","name":"emailHash","inputs":[],"outputs":[{"name":"","type":"uint256","internalType":"uint256"}],"stateMutability":"view"},{"type":"function","name":"emailHashIndexInSignals","inputs":[],"outputs":[{"name":"","type":"uint32","internalType":"uint32"}],"stateMutability":"view"},{"type":"function","name":"entryPoint","inputs":[],"outputs":[{"name":"","type":"address","internalType":"contract IEntryPoint"}],"stateMutability":"view"},{"type":"function","name":"execute","inputs":[{"name":"dest","type":"address","internalType":"address"},{"name":"value","type":"uint256","internalType":"uint256"},{"name":"func","type":"bytes","internalType":"bytes"}],"outputs":[],"stateMutability":"nonpayable"},{"type":"function","name":"executeBatch","inputs":[{"name":"dest","type":"address[]","internalType":"address[]"},{"name":"value","type":"uint256[]","internalType":"uint256[]"},{"name":"func","type":"bytes[]","internalType":"bytes[]"}],"outputs":[],"stateMutability":"nonpayable"},{"type":"function","name":"getDeposit","inputs":[],"outputs":[{"name":"","type":"uint256","internalType":"uint256"}],"stateMutability":"view"},{"type":"function","name":"getNonce","inputs":[],"outputs":[{"name":"","type":"uint256","internalType":"uint256"}],"stateMutability":"view"},{"type":"function","name":"gmailKeyHash","inputs":[],"outputs":[{"name":"","type":"bytes32","internalType":"bytes32"}],"stateMutability":"view"},{"type":"function","name":"initialize","inputs":[{"name":"anEmailHash","type":"uint256","internalType":"uint256"}],"outputs":[],"stateMutability":"nonpayable"},{"type":"function","name":"nullifierIndexInSignals","inputs":[],"outputs":[{"name":"","type":"uint32","internalType":"uint32"}],"stateMutability":"view"},{"type":"function","name":"onERC1155BatchReceived","inputs":[{"name":"","type":"address","internalType":"address"},{"name":"","type":"address","internalType":"address"},{"name":"","type":"uint256[]","internalType":"uint256[]"},{"name":"","type":"uint256[]","internalType":"uint256[]"},{"name":"","type":"bytes","internalType":"bytes"}],"outputs":[{"name":"","type":"bytes4","internalType":"bytes4"}],"stateMutability":"pure"},{"type":"function","name":"onERC1155Received","inputs":[{"name":"","type":"address","internalType":"address"},{"name":"","type":"address","internalType":"address"},{"name":"","type":"uint256","internalType":"uint256"},{"name":"","type":"uint256","internalType":"uint256"},{"name":"","type":"bytes","internalType":"bytes"}],"outputs":[{"name":"","type":"bytes4","internalType":"bytes4"}],"stateMutability":"pure"},{"type":"function","name":"onERC721Received","inputs":[{"name":"","type":"address","internalType":"address"},{"name":"","type":"address","internalType":"address"},{"name":"","type":"uint256","internalType":"uint256"},{"name":"","type":"bytes","internalType":"bytes"}],"outputs":[{"name":"","type":"bytes4","internalType":"bytes4"}],"stateMutability":"pure"},{"type":"function","name":"owner","inputs":[],"outputs":[{"name":"","type":"address","internalType":"address"}],"stateMutability":"view"},{"type":"function","name":"ownerIndexInSignals","inputs":[],"outputs":[{"name":"","type":"uint32","internalType":"uint32"}],"stateMutability":"view"},{"type":"function","name":"ownerLengthInSignals","inputs":[],"outputs":[{"name":"","type":"uint32","internalType":"uint32"}],"stateMutability":"view"},{"type":"function","name":"proxiableUUID","inputs":[],"outputs":[{"name":"","type":"bytes32","internalType":"bytes32"}],"stateMutability":"view"},{"type":"function","name":"pubKeyHashIndexInSignals","inputs":[],"outputs":[{"name":"","type":"uint32","internalType":"uint32"}],"stateMutability":"view"},{"type":"function","name":"sendTokens","inputs":[{"name":"tokenAddress","type":"address","internalType":"address"},{"name":"recipient","type":"address","internalType":"address"},{"name":"amount","type":"uint256","internalType":"uint256"}],"outputs":[],"stateMutability":"nonpayable"},{"type":"function","name":"supportsInterface","inputs":[{"name":"interfaceId","type":"bytes4","internalType":"bytes4"}],"outputs":[{"name":"","type":"bool","internalType":"bool"}],"stateMutability":"view"},{"type":"function","name":"tokensReceived","inputs":[{"name":"","type":"address","internalType":"address"},{"name":"","type":"address","internalType":"address"},{"name":"","type":"address","internalType":"address"},{"name":"","type":"uint256","internalType":"uint256"},{"name":"","type":"bytes","internalType":"bytes"},{"name":"","type":"bytes","internalType":"bytes"}],"outputs":[],"stateMutability":"pure"},{"type":"function","name":"transferOwnership","inputs":[{"name":"proof","type":"uint256[8]","internalType":"uint256[8]"},{"name":"signals","type":"uint256[5]","internalType":"uint256[5]"}],"outputs":[],"stateMutability":"nonpayable"},{"type":"function","name":"upgradeToAndCall","inputs":[{"name":"newImplementation","type":"address","internalType":"address"},{"name":"data","type":"bytes","internalType":"bytes"}],"outputs":[],"stateMutability":"payable"},{"type":"function","name":"usedNullifiers","inputs":[{"name":"","type":"uint256","internalType":"uint256"}],"outputs":[{"name":"","type":"bool","internalType":"bool"}],"stateMutability":"view"},{"type":"function","name":"validateUserOp","inputs":[{"name":"userOp","type":"tuple","internalType":"struct UserOperation","components":[{"name":"sender","type":"address","internalType":"address"},{"name":"nonce","type":"uint256","internalType":"uint256"},{"name":"initCode","type":"bytes","internalType":"bytes"},{"name":"callData","type":"bytes","internalType":"bytes"},{"name":"callGasLimit","type":"uint256","internalType":"uint256"},{"name":"verificationGasLimit","type":"uint256","internalType":"uint256"},{"name":"preVerificationGas","type":"uint256","internalType":"uint256"},{"name":"maxFeePerGas","type":"uint256","internalType":"uint256"},{"name":"maxPriorityFeePerGas","type":"uint256","internalType":"uint256"},{"name":"paymasterAndData","type":"bytes","internalType":"bytes"},{"name":"signature","type":"bytes","internalType":"bytes"}]},{"name":"userOpHash","type":"bytes32","internalType":"bytes32"},{"name":"missingAccountFunds","type":"uint256","internalType":"uint256"}],"outputs":[{"name":"validationData","type":"uint256","internalType":"uint256"}],"stateMutability":"nonpayable"},{"type":"function","name":"verifier","inputs":[],"outputs":[{"name":"","type":"address","internalType":"contract Verifier"}],"stateMutability":"view"},{"type":"function","name":"withdrawDepositTo","inputs":[{"name":"withdrawAddress","type":"address","internalType":"address payable"},{"name":"amount","type":"uint256","internalType":"uint256"}],"outputs":[],"stateMutability":"nonpayable"},{"type":"event","name":"EmailAccountInitialized","inputs":[{"name":"entryPoint","type":"address","indexed":true,"internalType":"contract IEntryPoint"},{"name":"emailHash","type":"uint256","indexed":true,"internalType":"uint256"}],"anonymous":false},{"type":"event","name":"Initialized","inputs":[{"name":"version","type":"uint64","indexed":false,"internalType":"uint64"}],"anonymous":false},{"type":"event","name":"OwnershipTransferred","inputs":[{"name":"previousOwner","type":"address","indexed":true,"internalType":"address"},{"name":"newOwner","type":"address","indexed":true,"internalType":"address"}],"anonymous":false},{"type":"event","name":"Upgraded","inputs":[{"name":"implementation","type":"address","indexed":true,"internalType":"address"}],"anonymous":false},{"type":"error","name":"ERC1967InvalidImplementation","inputs":[{"name":"implementation","type":"address","internalType":"address"}]},{"type":"error","name":"ERC1967NonPayable","inputs":[]},{"type":"error","name":"InvalidInitialization","inputs":[]},{"type":"error","name":"NotInitializing","inputs":[]},{"type":"error","name":"UUPSUnauthorizedCallContext","inputs":[]},{"type":"error","name":"UUPSUnsupportedProxiableUUID","inputs":[{"name":"slot","type":"bytes32","internalType":"bytes32"}]}],"bytecode":{"object":"0x60e06040523060805234801561001457600080fd5b50604051612b76380380612b768339810160408190526100339161011c565b6001600160a01b0380831660a052811660c05261004e610055565b5050610156565b7ff0c57e16840df040f15088dc2f81fe391c3923bec73e23a9662efc9c229c6a00805468010000000000000000900460ff16156100a55760405163f92ee8a960e01b815260040160405180910390fd5b80546001600160401b03908116146101045780546001600160401b0319166001600160401b0390811782556040519081527fc7f505b2f371ae2175ee4913f4499e1f2633a7b5936321eed1cdaeb6115181d29060200160405180910390a15b50565b6001600160a01b038116811461010457600080fd5b6000806040838503121561012f57600080fd5b825161013a81610107565b602084015190925061014b81610107565b809150509250929050565b60805160a05160c0516129ab6101cb600039600081816102d901526108690152600081816104e201528181610cf101528181610d7901528181610ea301528181610f3b01528181611522015281816116bf01526119ce01526000818161180d01528181611836015261197c01526129ab6000f3fe6080604052600436106101db5760003560e01c806352d1902d11610102578063bc197c8111610095578063e2ec1f5711610064578063e2ec1f57146105a7578063e6d66ac8146105db578063f23a6e61146105fb578063fe4b84df1461062857600080fd5b8063bc197c8114610526578063bec47aea14610555578063c399ec881461057d578063d087d2881461059257600080fd5b8063aad24061116100d1578063aad2406114610465578063ad3cb1cc14610495578063b0d691fe146104d3578063b61d27f61461050657600080fd5b806352d1902d1461041b5780635b6800e31461043057806367fb4eea146102b25780638da5cb5b1461044557600080fd5b806334155af81161017a57806347e1da2a1161014957806347e1da2a146103c05780634a58db19146103e05780634d44560d146103e85780634f1ef2861461040857600080fd5b806334155af81461033357806336cb847714610375578063384b0dd81461038b5780633a871cdd146103a057600080fd5b8063150b7a02116101b6578063150b7a021461026d5780631a0235ec146102b25780632b7ac3f3146102c75780632d1516dd1461031357600080fd5b806223de29146101e757806301ffc9a71461020e57806314c522511461024357600080fd5b366101e257005b600080fd5b3480156101f357600080fd5b5061020c610202366004611fdc565b5050505050505050565b005b34801561021a57600080fd5b5061022e61022936600461208c565b610648565b60405190151581526020015b60405180910390f35b34801561024f57600080fd5b50610258600081565b60405163ffffffff909116815260200161023a565b34801561027957600080fd5b506102996102883660046120b6565b630a85bd0160e11b95945050505050565b6040516001600160e01b0319909116815260200161023a565b3480156102be57600080fd5b50610258600281565b3480156102d357600080fd5b506102fb7f000000000000000000000000000000000000000000000000000000000000000081565b6040516001600160a01b03909116815260200161023a565b34801561031f57600080fd5b5061020c61032e3660046121cc565b61069a565b34801561033f57600080fd5b506103677f0ea9c777dc7110e5a9e89b13f0cfc540e3845ba120b2b6dc24024d61488d478881565b60405190815260200161023a565b34801561038157600080fd5b5061036760015481565b34801561039757600080fd5b50610258600181565b3480156103ac57600080fd5b506103676103bb36600461226a565b610b4b565b3480156103cc57600080fd5b5061020c6103db366004612301565b610b71565b61020c610cef565b3480156103f457600080fd5b5061020c61040336600461239a565b610d6f565b61020c6104163660046123c6565b610df8565b34801561042757600080fd5b50610367610e17565b34801561043c57600080fd5b50610258600481565b34801561045157600080fd5b506000546102fb906001600160a01b031681565b34801561047157600080fd5b5061022e61048036600461246d565b60026020526000908152604090205460ff1681565b3480156104a157600080fd5b506104c6604051806040016040528060058152602001640352e302e360dc1b81525081565b60405161023a91906124d6565b3480156104df57600080fd5b507f00000000000000000000000000000000000000000000000000000000000000006102fb565b34801561051257600080fd5b5061020c6105213660046124e9565b610e34565b34801561053257600080fd5b50610299610541366004612544565b63bc197c8160e01b98975050505050505050565b34801561056157600080fd5b5061056a601f81565b60405161ffff909116815260200161023a565b34801561058957600080fd5b50610367610e83565b34801561059e57600080fd5b50610367610f14565b3480156105b357600080fd5b506103677f123456789012345678901234567890123456789012345678901234567890123481565b3480156105e757600080fd5b5061020c6105f63660046125e1565b610f6a565b34801561060757600080fd5b50610299610616366004612622565b63f23a6e6160e01b9695505050505050565b34801561063457600080fd5b5061020c61064336600461246d565b61109f565b60006001600160e01b03198216630a85bd0160e11b148061067957506001600160e01b03198216630271189760e51b145b8061069457506001600160e01b031982166301ffc9a760e01b145b92915050565b60808101517f30644e72e131a029b85045b68181585d2833e84879b9709143e1f593f0000001908181106107095760405162461bcd60e51b815260206004820152601160248201527034b73b30b634b210373ab63634b334b2b960791b60448201526064015b60405180910390fd5b60008181526002602052604090205460ff16156107685760405162461bcd60e51b815260206004820152601e60248201527f6e756c6c696669657220686173206265656e2075736564206265666f726500006044820152606401610700565b6000818152600260205260409020805460ff1916600117905582517f12345678901234567890123456789012345678901234567890123456789012348114806107d057507f0ea9c777dc7110e5a9e89b13f0cfc540e3845ba120b2b6dc24024d61488d478881145b61081c5760405162461bcd60e51b815260206004820152601760248201527f696e76616c6964207075626c6963206b657920686173680000000000000000006044820152606401610700565b602084015160015481146108675760405162461bcd60e51b81526020600482015260126024820152710d2dcecc2d8d2c840cadac2d2d840d0c2e6d60731b6044820152606401610700565b7f00000000000000000000000000000000000000000000000000000000000000006001600160a01b03166334baeab96040518060400160405280896000600881106108b4576108b461268b565b60200201518152602001896001600881106108d1576108d161268b565b60200201519052604080516080810182528a820151918101918252908190606082018c60036020020151815250815260200160405180604001604052808c6004600881106109215761092161268b565b602002015181526020018c60056008811061093e5761093e61268b565b60200201519052905260408051808201909152808b6006602002015181526020018b6007600881106109725761097261268b565b6020020151815250896040518563ffffffff1660e01b815260040161099a94939291906126c4565b602060405180830381865afa1580156109b7573d6000803e3d6000fd5b505050506040513d601f19601f820116820180604052508101906109db9190612748565b610a175760405162461bcd60e51b815260206004820152600d60248201526c24b73b30b634b210283937b7b360991b6044820152606401610700565b60408051600280825260608201835260009260208301908036833701905050905060025b610a46600280612780565b63ffffffff16811015610a9957868160058110610a6557610a6561268b565b602002015182610a766002846127a4565b81518110610a8657610a8661268b565b6020908102919091010152600101610a3b565b506000610ab982610aac6002601f6127b7565b63ffffffff16601f6111ac565b9050600073__$21d8a18fc0947894683c0a875700b1d4c4$__6315706fdf836040518263ffffffff1660e01b8152600401610af491906124d6565b602060405180830381865af4158015610b11573d6000803e3d6000fd5b505050506040513d601f19601f82011682018060405250810190610b3591906127df565b9050610b40816114c7565b505050505050505050565b6000610b55611517565b610b5f8484611591565b9050610b6a82611667565b9392505050565b610b796116b4565b8481148015610b8f5750821580610b8f57508281145b610bd15760405162461bcd60e51b815260206004820152601360248201527277726f6e67206172726179206c656e6774687360681b6044820152606401610700565b6000839003610c7d5760005b85811015610c7757610c6f878783818110610bfa57610bfa61268b565b9050602002016020810190610c0f91906127fc565b6000858585818110610c2357610c2361268b565b9050602002810190610c359190612819565b8080601f01602080910402602001604051908101604052809392919081815260200183838082843760009201919091525061174192505050565b600101610bdd565b50610ce7565b60005b85811015610ce557610cdd878783818110610c9d57610c9d61268b565b9050602002016020810190610cb291906127fc565b868684818110610cc457610cc461268b565b90506020020135858585818110610c2357610c2361268b565b600101610c80565b505b505050505050565b7f000000000000000000000000000000000000000000000000000000000000000060405163b760faf960e01b81523060048201526001600160a01b03919091169063b760faf99034906024016000604051808303818588803b158015610d5457600080fd5b505af1158015610d68573d6000803e3d6000fd5b5050505050565b610d776117b1565b7f000000000000000000000000000000000000000000000000000000000000000060405163040b850f60e31b81526001600160a01b03848116600483015260248201849052919091169063205c287890604401600060405180830381600087803b158015610de457600080fd5b505af1158015610ce7573d6000803e3d6000fd5b610e00611802565b610e09826118a7565b610e1382826118af565b5050565b6000610e21611971565b5060008051602061292f83398151915290565b610e3c6116b4565b610e7d848484848080601f01602080910402602001604051908101604052809392919081815260200183838082843760009201919091525061174192505050565b50505050565b6040516370a0823160e01b81523060048201526000906001600160a01b037f000000000000000000000000000000000000000000000000000000000000000016906370a08231906024015b602060405180830381865afa158015610eeb573d6000803e3d6000fd5b505050506040513d601f19601f82011682018060405250810190610f0f919061285f565b905090565b604051631aab3f0d60e11b8152306004820152600060248201819052906001600160a01b037f000000000000000000000000000000000000000000000000000000000000000016906335567e1a90604401610ece565b610f726117b1565b6040516370a0823160e01b8152306004820152839082906001600160a01b038316906370a0823190602401602060405180830381865afa158015610fba573d6000803e3d6000fd5b505050506040513d601f19601f82011682018060405250810190610fde919061285f565b101561102c5760405162461bcd60e51b815260206004820152601a60248201527f496e73756666696369656e7420746f6b656e2062616c616e63650000000000006044820152606401610700565b60405163a9059cbb60e01b81526001600160a01b0384811660048301526024820184905282169063a9059cbb906044016020604051808303816000875af115801561107b573d6000803e3d6000fd5b505050506040513d601f19601f82011682018060405250810190610d689190612748565b7ff0c57e16840df040f15088dc2f81fe391c3923bec73e23a9662efc9c229c6a008054600160401b810460ff1615906001600160401b03166000811580156110e45750825b90506000826001600160401b031660011480156111005750303b155b90508115801561110e575080155b1561112c5760405163f92ee8a960e01b815260040160405180910390fd5b845467ffffffffffffffff19166001178555831561115657845460ff60401b1916600160401b1785555b61115f866119ba565b8315610ce757845460ff60401b19168555604051600181527fc7f505b2f371ae2175ee4913f4499e1f2633a7b5936321eed1cdaeb6115181d29060200160405180910390a1505050505050565b60606000808386516111be9190612878565b6001600160401b038111156111d5576111d5612128565b6040519080825280601f01601f1916602001820160405280156111ff576020820181803683370190505b5090506000805b87518161ffff1610156113a1576000888261ffff168151811061122b5761122b61268b565b602002602001015190506000876001600160401b0381111561124f5761124f612128565b604051908082528060200260200182016040528015611278578160200160208202803683370190505b50905060005b888110156112c057611291816008612878565b83901c8282815181106112a6576112a661268b565b60ff9092166020928302919091019091015260010161127e565b5060005b8881101561138b5760008282815181106112e0576112e061268b565b602002602001015160ff16905080600014611358578060f81b87878151811061130b5761130b61268b565b60200101906001600160f81b031916908160001a9053508561132c8161288f565b965061133b90506002896128a8565b60ff16600003611353576113506001896128d8565b97505b61137b565b6113636002896128a8565b60ff1660010361137b576113786001896128d8565b97505b5060089290921c916001016112c4565b5050508080611399906128f1565b915050611206565b5060018360ff1610156114425760405162461bcd60e51b815260206004820152605760248201527f4e6f207061636b656420627974657320666f756e642120496e76616c6964206660448201527f696e616c207374617465206f66207061636b656420627974657320696e20656d60648201527f61696c3b2076616c7565206973206c696b656c79203021000000000000000000608482015260a401610700565b858111156114b05760405162461bcd60e51b815260206004820152603560248201527f5061636b6564206279746573206d6f7265207468616e20616c6c6f776564206d6044820152746178206e756d626572206f66207369676e616c732160581b6064820152608401610700565b60006114bb83611a18565b98975050505050505050565b600080546001600160a01b038381166001600160a01b0319831681178455604051919092169283917f8be0079c531659141344cd1fd0a4f28419497f9722a3daafe3b4186f6b6457e09190a35050565b336001600160a01b037f0000000000000000000000000000000000000000000000000000000000000000161461158f5760405162461bcd60e51b815260206004820152601c60248201527f6163636f756e743a206e6f742066726f6d20456e747279506f696e74000000006044820152606401610700565b565b6000806115eb836040517f19457468657265756d205369676e6564204d6573736167653a0a3332000000006020820152603c8101829052600090605c01604051602081830303815290604052805190602001209050919050565b905061163b6115fe610140860186612819565b8080601f0160208091040260200160405190810160405280939291908181526020018383808284376000920191909152508593925050611b0d9050565b6000546001600160a01b0390811691161461165a576001915050610694565b5060009392505050565b50565b801561166457604051600090339060001990849084818181858888f193505050503d8060008114610d68576040519150601f19603f3d011682016040523d82523d6000602084013e610d68565b336001600160a01b037f00000000000000000000000000000000000000000000000000000000000000001614806116f557506000546001600160a01b031633145b61158f5760405162461bcd60e51b815260206004820181905260248201527f6163636f756e743a206e6f74204f776e6572206f7220456e747279506f696e746044820152606401610700565b600080846001600160a01b0316848460405161175d9190612912565b60006040518083038185875af1925050503d806000811461179a576040519150601f19603f3d011682016040523d82523d6000602084013e61179f565b606091505b509150915081610d6857805160208201fd5b6000546001600160a01b03163314806117c957503330145b61158f5760405162461bcd60e51b815260206004820152600a60248201526937b7363c9037bbb732b960b11b6044820152606401610700565b306001600160a01b037f000000000000000000000000000000000000000000000000000000000000000016148061188957507f00000000000000000000000000000000000000000000000000000000000000006001600160a01b031661187d60008051602061292f833981519152546001600160a01b031690565b6001600160a01b031614155b1561158f5760405163703e46dd60e11b815260040160405180910390fd5b6116646117b1565b816001600160a01b03166352d1902d6040518163ffffffff1660e01b8152600401602060405180830381865afa925050508015611909575060408051601f3d908101601f191682019092526119069181019061285f565b60015b61193157604051634c9c8ce360e01b81526001600160a01b0383166004820152602401610700565b60008051602061292f833981519152811461196257604051632a87526960e21b815260048101829052602401610700565b61196c8383611baf565b505050565b306001600160a01b037f0000000000000000000000000000000000000000000000000000000000000000161461158f5760405163703e46dd60e11b815260040160405180910390fd5b600181905560405181906001600160a01b037f000000000000000000000000000000000000000000000000000000000000000016907f232361911dfde8d899ca318d5df73c24955170a5cd8264844d5ed02d90c6beda90600090a350565b8051606090829060005b8251811015611a6357828181518110611a3d57611a3d61268b565b01602001516001600160f81b031916600003611a5b57809150611a63565b600101611a22565b506000816001600160401b03811115611a7e57611a7e612128565b6040519080825280601f01601f191660200182016040528015611aa8576020820181803683370190505b50905060005b82811015611b0457838181518110611ac857611ac861268b565b602001015160f81c60f81b828281518110611ae557611ae561268b565b60200101906001600160f81b031916908160001a905350600101611aae565b50949350505050565b60008151604103611b405760208201516040830151606084015160001a611b3686828585611c05565b9350505050610694565b8151604003611b675760208201516040830151611b5e858383611dae565b92505050610694565b60405162461bcd60e51b815260206004820152601f60248201527f45434453413a20696e76616c6964207369676e6174757265206c656e677468006044820152606401610700565b611bb882611dd8565b6040516001600160a01b038316907fbc7cd75a20ee27fd9adebab32041f755214dbc6bffa90cc0225b39da2e5c2d3b90600090a2805115611bfd5761196c8282611e3d565b610e13611e62565b60007f7fffffffffffffffffffffffffffffff5d576e7357a4501ddfe92f46681b20a0821115611c825760405162461bcd60e51b815260206004820152602260248201527f45434453413a20696e76616c6964207369676e6174757265202773272076616c604482015261756560f01b6064820152608401610700565b8360ff16601b1480611c9757508360ff16601c145b611cee5760405162461bcd60e51b815260206004820152602260248201527f45434453413a20696e76616c6964207369676e6174757265202776272076616c604482015261756560f01b6064820152608401610700565b6040805160008082526020820180845288905260ff871692820192909252606081018590526080810184905260019060a0016020604051602081039080840390855afa158015611d42573d6000803e3d6000fd5b5050604051601f1901519150506001600160a01b038116611da55760405162461bcd60e51b815260206004820152601860248201527f45434453413a20696e76616c6964207369676e617475726500000000000000006044820152606401610700565b95945050505050565b60006001600160ff1b03821660ff83901c601b01611dce86828785611c05565b9695505050505050565b806001600160a01b03163b600003611e0e57604051634c9c8ce360e01b81526001600160a01b0382166004820152602401610700565b60008051602061292f83398151915280546001600160a01b0319166001600160a01b0392909216919091179055565b6060610b6a838360405180606001604052806027815260200161294f60279139611e81565b341561158f5760405163b398979f60e01b815260040160405180910390fd5b6060833b611ee05760405162461bcd60e51b815260206004820152602660248201527f416464726573733a2064656c65676174652063616c6c20746f206e6f6e2d636f6044820152651b9d1c9858dd60d21b6064820152608401610700565b600080856001600160a01b031685604051611efb9190612912565b600060405180830381855af49150503d8060008114611f36576040519150601f19603f3d011682016040523d82523d6000602084013e611f3b565b606091505b5091509150611dce82828660608315611f55575081610b6a565b825115611f655782518084602001fd5b8160405162461bcd60e51b815260040161070091906124d6565b6001600160a01b038116811461166457600080fd5b60008083601f840112611fa657600080fd5b5081356001600160401b03811115611fbd57600080fd5b602083019150836020828501011115611fd557600080fd5b9250929050565b60008060008060008060008060c0898b031215611ff857600080fd5b883561200381611f7f565b9750602089013561201381611f7f565b9650604089013561202381611f7f565b95506060890135945060808901356001600160401b038082111561204657600080fd5b6120528c838d01611f94565b909650945060a08b013591508082111561206b57600080fd5b506120788b828c01611f94565b999c989b5096995094979396929594505050565b60006020828403121561209e57600080fd5b81356001600160e01b031981168114610b6a57600080fd5b6000806000806000608086880312156120ce57600080fd5b85356120d981611f7f565b945060208601356120e981611f7f565b93506040860135925060608601356001600160401b0381111561210b57600080fd5b61211788828901611f94565b969995985093965092949392505050565b634e487b7160e01b600052604160045260246000fd5b604051601f8201601f191681016001600160401b038111828210171561216657612166612128565b604052919050565b600060405160a081018181106001600160401b038211171561219257612192612128565b60405290508060a08301848111156121a957600080fd5b835b818110156121c35780358352602092830192016121ab565b50505092915050565b6000806101a083850312156121e057600080fd5b83601f8401126121ef57600080fd5b6040516101008082018281106001600160401b038211171561221357612213612128565b6040528401818682111561222657600080fd5b855b82811015612240578035825260209182019101612228565b50508193508561011f86011261225557600080fd5b61225f868261216e565b925050509250929050565b60008060006060848603121561227f57600080fd5b83356001600160401b0381111561229557600080fd5b840161016081870312156122a857600080fd5b95602085013595506040909401359392505050565b60008083601f8401126122cf57600080fd5b5081356001600160401b038111156122e657600080fd5b6020830191508360208260051b8501011115611fd557600080fd5b6000806000806000806060878903121561231a57600080fd5b86356001600160401b038082111561233157600080fd5b61233d8a838b016122bd565b9098509650602089013591508082111561235657600080fd5b6123628a838b016122bd565b9096509450604089013591508082111561237b57600080fd5b5061238889828a016122bd565b979a9699509497509295939492505050565b600080604083850312156123ad57600080fd5b82356123b881611f7f565b946020939093013593505050565b600080604083850312156123d957600080fd5b82356123e481611f7f565b91506020838101356001600160401b038082111561240157600080fd5b818601915086601f83011261241557600080fd5b81358181111561242757612427612128565b612439601f8201601f1916850161213e565b9150808252878482850101111561244f57600080fd5b80848401858401376000848284010152508093505050509250929050565b60006020828403121561247f57600080fd5b5035919050565b60005b838110156124a1578181015183820152602001612489565b50506000910152565b600081518084526124c2816020860160208601612486565b601f01601f19169290920160200192915050565b602081526000610b6a60208301846124aa565b600080600080606085870312156124ff57600080fd5b843561250a81611f7f565b93506020850135925060408501356001600160401b0381111561252c57600080fd5b61253887828801611f94565b95989497509550505050565b60008060008060008060008060a0898b03121561256057600080fd5b883561256b81611f7f565b9750602089013561257b81611f7f565b965060408901356001600160401b038082111561259757600080fd5b6125a38c838d016122bd565b909850965060608b01359150808211156125bc57600080fd5b6125c88c838d016122bd565b909650945060808b013591508082111561206b57600080fd5b6000806000606084860312156125f657600080fd5b833561260181611f7f565b9250602084013561261181611f7f565b929592945050506040919091013590565b60008060008060008060a0878903121561263b57600080fd5b863561264681611f7f565b9550602087013561265681611f7f565b9450604087013593506060870135925060808701356001600160401b0381111561267f57600080fd5b61238889828a01611f94565b634e487b7160e01b600052603260045260246000fd5b8060005b6002811015610e7d5781518452602093840193909101906001016126a5565b6101a081016126d382876126a1565b60408083018660005b6002811015612703576126f08383516126a1565b91830191602091909101906001016126dc565b5050505061271460c08301856126a1565b61010082018360005b600581101561273c57815183526020928301929091019060010161271d565b50505095945050505050565b60006020828403121561275a57600080fd5b81518015158114610b6a57600080fd5b634e487b7160e01b600052601160045260246000fd5b63ffffffff81811683821601908082111561279d5761279d61276a565b5092915050565b818103818111156106945761069461276a565b63ffffffff8181168382160280821691908281146127d7576127d761276a565b505092915050565b6000602082840312156127f157600080fd5b8151610b6a81611f7f565b60006020828403121561280e57600080fd5b8135610b6a81611f7f565b6000808335601e1984360301811261283057600080fd5b8301803591506001600160401b0382111561284a57600080fd5b602001915036819003821315611fd557600080fd5b60006020828403121561287157600080fd5b5051919050565b80820281158282048414176106945761069461276a565b6000600182016128a1576128a161276a565b5060010190565b600060ff8316806128c957634e487b7160e01b600052601260045260246000fd5b8060ff84160691505092915050565b60ff81811683821601908111156106945761069461276a565b600061ffff8083168181036129085761290861276a565b6001019392505050565b60008251612924818460208701612486565b919091019291505056fe360894a13ba1a3210667c828492db98dca3e2076cc3735a920a3ca505d382bbc416464726573733a206c6f772d6c6576656c2064656c65676174652063616c6c206661696c6564a264697066735822122023145c606a01df720b5c0f071307c003e4623aa04a52bd0b9a915bd62356f32464736f6c63430008190033","linkReferences":{"src/utils/StringUtils.sol":{"StringUtils":[{"start":3210,"length":20}]}}},"methodIdentifiers":{"UPGRADE_INTERFACE_VERSION()":"ad3cb1cc","addDeposit()":"4a58db19","appleEmailKeyHash()":"e2ec1f57","bytesInPackedBytes()":"bec47aea","emailHash()":"36cb8477","emailHashIndexInSignals()":"384b0dd8","entryPoint()":"b0d691fe","execute(address,uint256,bytes)":"b61d27f6","executeBatch(address[],uint256[],bytes[])":"47e1da2a","getDeposit()":"c399ec88","getNonce()":"d087d288","gmailKeyHash()":"34155af8","initialize(uint256)":"fe4b84df","nullifierIndexInSignals()":"5b6800e3","onERC1155BatchReceived(address,address,uint256[],uint256[],bytes)":"bc197c81","onERC1155Received(address,address,uint256,uint256,bytes)":"f23a6e61","onERC721Received(address,address,uint256,bytes)":"150b7a02","owner()":"8da5cb5b","ownerIndexInSignals()":"67fb4eea","ownerLengthInSignals()":"1a0235ec","proxiableUUID()":"52d1902d","pubKeyHashIndexInSignals()":"14c52251","sendTokens(address,address,uint256)":"e6d66ac8","supportsInterface(bytes4)":"01ffc9a7","tokensReceived(address,address,address,uint256,bytes,bytes)":"0023de29","transferOwnership(uint256[8],uint256[5])":"2d1516dd","upgradeToAndCall(address,bytes)":"4f1ef286","usedNullifiers(uint256)":"aad24061","validateUserOp((address,uint256,bytes,bytes,uint256,uint256,uint256,uint256,uint256,bytes,bytes),bytes32,uint256)":"3a871cdd","verifier()":"2b7ac3f3","withdrawDepositTo(address,uint256)":"4d44560d"},"id":56}